{
  "_format": "hh-sol-artifact-1",
  "contractName": "Hasher",
  "sourceName": "src/contracts/RPS.sol",
  "abi": [
    {
      "constant": true,
      "inputs": [
        {
          "name": "_c",
          "type": "uint8"
        },
        {
          "name": "_salt",
          "type": "uint256"
        }
      ],
      "name": "hash",
      "outputs": [
        {
          "name": "",
          "type": "bytes32"
        }
      ],
      "payable": false,
      "stateMutability": "view",
      "type": "function"
    }
  ],
  "bytecode": "0x6080604052348015600f57600080fd5b5060e08061001e6000396000f300608060405260043610603e5763ffffffff7c010000000000000000000000000000000000000000000000000000000060003504166367ef4c1381146043575b600080fd5b348015604e57600080fd5b50605e60ff600435166024356070565b60408051918252519081900360200190f35b604080517f010000000000000000000000000000000000000000000000000000000000000060ff8516028152600181018390529051908190036021019020929150505600a165627a7a72305820836dd3a3199da5b217c933328bba09031c420d71934fd5d131b2002e0b41afb20029",
  "linkReferences": {},
  "deployedLinkReferences": {}
}